:020000040800F2
:10000000280800208D130008610200086302000820
:10001000670200086B0200086F0200080000000081
:100020000000000000000000000000007302000853
:10003000750200080000000077020008790200083D
:10004000A7130008A7130008A7130008A7130008A8
:10005000A7130008A7130008A7130008A713000898
:10006000A7130008A7130008A7130008A713000888
:10007000A7130008A7130008A7130008A713000878
:10008000A7130008A7130008A7130008A713000868
:10009000A7130008A7130008A7130008E10400082D
:1000A000A7130008A7130008A7130008A713000848
:1000B000A7130008A7130008A7130008A713000838
:1000C000A7130008A7130008A7130008A713000828
:1000D000A7130008A713000851130008A71300086E
:1000E0000B050008A7130008A7130008A7130008B2
:1000F000A7130008A7130008A7130008A7130008F8
:10010000A7130008A7130008A7130008A7130008E7
:10011000A7130008A7130008A7130008A7130008D7
:10012000A7130008A7130008A7130008A7130008C7
:10013000A7130008A7130008A7130008A7130008B7
:10014000A7130008A7130008A7130008A7130008A7
:10015000A7130008A7130008A7130008A713000897
:10016000A7130008A7130008A7130008A713000887
:10017000A7130008A7130008A7130008A713000877
:10018000A7130008A713000800F002F800F03CF8DD
:100190000AA090E8000C82448344AAF10107DA45E2
:1001A00001D100F031F8AFF2090EBAE80F0013F0F8
:1001B000010F18BFFB1A43F001031847882C0000F9
:1001C000A82C0000103A24BF78C878C1FAD852078A
:1001D00024BF30C830C144BF04680C6070470000C1
:1001E0000023002400250026103A28BF78C1FBD840
:1001F000520728BF30C148BF0B6070471FB502F0DF
:1002000016FD1FBD10B510BD02F0FBFA1146FFF739
:10021000F5FF00F008F802F019FB03B4FFF7F2FF56
:1002200003BC01F035F84FF4A06001F0CFF8A8202E
:1002300000F0ACFF4FF4E13001F038F800F0AAF91B
:1002400000F0DEFA00F088FE00F0ABFD00F061FC8B
:1002500000F082FE03E000F040FB00F0B0FEFAE7A1
:10026000704700BFFEE700BFFEE700BFFEE700BF2C
:10027000FEE7704770477047704700000CB50020DC
:10028000019000907648006840F48030744908601E
:1002900000BF7348006800F4003000900198401CD3
:1002A0000190009818B90198B0F5A04FF1D16C48B1
:1002B000006800F4003010B10120009001E000203F
:1002C00000900098012846D165484030006840F011
:1002D00080506349403108606248006840F4404003
:1002E000604908605E48083000685D490831086070
:1002F0000846006840F4004008600846006840F482
:10030000A05008605848091F0860081F006840F0A6
:100310008070091F086000BF5148006800F000703D
:100320000028F9D040F20570504908604C48083068
:10033000006820F003004A49083108600846006858
:1003400040F00200086000BF45480830006800F037
:100350000C000828F8D10CBD10B54548006840F4E1
:100360007000434908603E48006840F001003C4985
:10037000086000203A4908310860394800683D4962
:100380000840374908603C48091D0860081F00689C
:1003900020F48020091F0860002031490C310860DA
:1003A000FFF76CFF4FF0006031498039086010BDE5
:1003B00070B500200022022300240221284D0835B8
:1003C0002D6805F00C0020B1042806D0082834D18F
:1003D00007E02A4D2A4E356033E02A4D284E35601D
:1003E0002FE01F4D2D1D2D68C5F380541C4D2D1D74
:1003F0002D6805F03F0154B1224DB5FBF1F5184EC3
:10040000361D3668C6F3881605FB06F209E01B4D5B
:10041000B5FBF1F5124E361D3668C6F3881605FB9E
:1004200006F20F4D2D1D2D68C5F301456D1C6B00A7
:10043000B2FBF3F5124E356003E0104D104E3560FF
:1004400000BF00BF064D08352D68C5F303150E4EDD
:10045000705D0B4D2D68C540094E356070BD0000C4
:10046000003802400070004008544007003C024041
:1004700088ED00E0FFFFF6FE103000240024F400B9
:100480000000002000127A00040000201CB50121A9
:100490000A2001F0B7FB4FF47040009000208DF867
:1004A000040002208DF8050001208DF80700694640
:1004B000094801F081F84FF48070009000208DF819
:1004C000040002208DF8050001208DF80700694620
:1004D000024801F071F81CBD00040240000C02400B
:1004E00010B50A2000F0B4FE4FF480714E4801F0C0
:1004F000C5F828B9112000F0B2F8112000F04AF92F
:100500004FF4807001F09BF910BD10B51E2000F073
:100510009FFE4FF48051454801F0B0F848B91220D1
:1005200000F09DF8122000F035F94FF4805001F0F2
:1005300086F94FF400513D4801F0A0F848B9132066
:1005400000F08DF8132000F025F94FF4005001F071
:1005500076F94FF48041354801F090F848B91420FD
:1005600000F07DF8142000F015F94FF4804001F000
:1005700066F94FF400412D4801F080F848B9152084
:1005800000F06DF8152000F005F94FF4004001F07F
:1005900056F910BD0EB5FFF779FF0121880301F070
:1005A0008BFB0821032001F092FC0C21012001F0BB
:1005B0008EFC0D21012001F08AFC0E21012001F0AA
:1005C00086FC0F21012001F082FC4FF47140009065
:1005D00000208DF804000C208DF8050001208DF816
:1005E0000600684601F0BAF817208DF808000220CE
:1005F0008DF8090005208DF80A0001208DF80B0008
:1006000002A800F0E8FE28208DF8080002208DF8EE
:10061000090003208DF80A0001208DF80B0002A8C4
:1006200000F0D9FE0EBD0000000C024000040240A4
:1006300070B502460C4600200BE003124FF6FF7522
:1006400005EA002015785D40674E36F81550684081
:10065000521C2500A4F10106F4B2EED170BD70B5B4
:100660000546624845720A21FFF7E2FF064630124E
:100670005E498872CE7240215D4801F038FE002448
:100680000DE05A48015D5A4801F074FD00BF402159
:10069000574801F01FFE0128F9D1601CC4B20C2C90
:1006A000EFDB70BD70B50546504845720A21FFF773
:1006B000BFFF064630124D498872CE7240214C4829
:1006C00001F015FE00240DE04848015D484801F0A6
:1006D00051FD00BF4021464801F0FCFD0128F9D141
:1006E000601CC4B20C2CEFDB70BD30B541480088F3
:1006F0000B284CD140480078A32845D13E4840788B
:10070000A42841D13C48807800283DD13A48C0789F
:1007100080BB3948007968BB37484079032833D11A
:100720003548807910282FD13348C0791B282BD128
:100730003148007A572827DC09212F48FFF778FF36
:1007400005462D48407AE9B288420DD12A48807A80
:10075000B0EB252F08D1002404E02748005D27498D
:100760000855641C0B2CF8DB2448007A552802D16C
:10077000012030BD08E02148007A562801D1002030
:10078000F7E74FF0FF30F4E700201A4908804FF0F8
:10079000FF30EEE72DE9F0410646002714E0642023
:1007A00000F056FDFFF7A1FF0446012C00D10DE03B
:1007B00004B90BE0AA2E03DA3046FFF750FF02E03F
:1007C0003046FFF76FFF7F1C022FE8DB00BF0025DC
:1007D00003E00020084948556D1C06480088854202
:1007E000F7DBBDE8F0810000422C00081400002077
:1007F00000440040D2000020B7010020AC010020DE
:1008000000B58DB00121084601F0FCF90121080274
:1008100001F052FA03208DF8300001200B900020E7
:100820008DF833000BA9524800F0C6FE01210802E2
:1008300001F097FA00214FF4807001F092FA002045
:10084000099007904FF48030089000200A9007A884
:1008500001F0DAFD00208DF80900059003900120D9
:100860008DF81800002001908DF8080001A941487A
:1008700001F09BFD01213F4801F0DDFD0DB000BD01
:1008800010B504460723012221463A4801F013FE21
:10089000384801F06CFE00BF0221364801F088FFA5
:1008A0000028F9D0334801F09EFE10BD2DE9F0413B
:1008B00007460C460025002608E03846FFF7E0FF13
:1008C0000544052000F0C4FC701CC6B2A642F4DB4F
:1008D000B5FBF4F080B2BDE8F08110B52DED068BCC
:1008E00014210020FFF7E2FF08EE100AB8EE480AD4
:1008F00010EE100A02F02AF941EC1A0B9FED1E0BC4
:1009000053EC102B02F024F841EC190B01F0A8FF76
:1009100008EE900AFA2000F09BFC1948006878B9AC
:10092000B7EE040AF4EEC08AF1EE10FA08DDAA2050
:10093000FFF7B8FEAA20FFF72DFF0120104908603D
:100940000F48006801280FD1B7EE040AF4EEC08A00
:10095000F1EE10FA08D8BB20FFF7A4FEBB20FFF78A
:1009600019FF002006490860BDEC068B10BD000091
:1009700000000240002001406666666666664A3FE7
:100980002C00002010B58F48006820F440608D498D
:1009900008600846006840F48060086000208A49CA
:1009A000086040F2EE2000F00BFC01208749C1F8FE
:1009B00094020F2000F004FC10BD10B50024814803
:1009C000006820F440607F490860084600680860BD
:1009D00004E0601CC4B2012000F0F2FB7A488038C9
:1009E000006808B1C82CF4DBC82C01DB012010BD65
:1009F000002404E0601CC4B2012000F0E1FB724856
:100A00008038006808B9F02CF4DBF02C01DB012001
:100A1000EDE70020EBE710B56A48006820F440607D
:100A2000684908600846006840F48060086000205B
:100A300065490860022000F0C3FB01206349C1F84A
:100A400094026048006820F440605E4908600846EF
:100A5000006808600C2000F0B3FB5B488038006839
:100A600008B1012400E00024322000F0A9FB204658
:100A700010BD70B50026012508E0FFF7CCFF044645
:100A8000E00140EA6600C6B2681CC5B2082DF4DD7C
:100A9000304670BD70B504464A48006820F4406096
:100AA000484908600846006840F4806008600125F5
:100AB00020E004F0010664106EB100204249086095
:100AC000022000F07DFB01204049C1F894023C2047
:100AD00000F076FB0CE000203B4908603C2000F071
:100AE0006FFB01203949C1F89402022000F068FB35
:100AF000681CC5B2082DDCDD70BD10B5FFF742FFE4
:100B0000FFF75BFFCC20FFF7C5FF4420FFF7C2FFD4
:100B100010BD1CB50121022001F074F820200090C6
:100B200001208DF8040000208DF8060002208DF8C9
:100B3000050001208DF807006946254800F03CFDBE
:100B4000FFF720FFFFF739FF1CBD2DE9F0412DED28
:100B5000048BFFF7D2FFFFF715FFFFF72EFFCC2026
:100B6000FFF798FFBE20FFF795FFFFF782FF0746CC
:100B7000FFF77FFF0446072C05DDE043C4B2F843CE
:100B8000C7B2002600E001262546280205B2E81972
:100B900005B2284601F0C5FE41EC190B9FED0D0B87
:100BA00053EC102B01F0D4FE41EC180B01F08AFE3F
:100BB00005B226B12846BDEC048BBDE8F081684241
:100BC00000B2F8E7000402409482404200804042B4
:100BD00000180240000000000000E43F01E000BFF8
:100BE000401E0028FBD1704700B5CF4800680120A7
:100BF000CE49C1F89002CE4908600520FFF7EEFF0C
:100C00000020CA49C1F88C0200BD00B5C648803832
:100C100000680020C549C1F890020520FFF7DEFFFB
:100C20000120C349091D08600220FFF7D7FF0020FB
:100C3000BE49C1F8900200BD00B5BB480068002065
:100C4000BA49C1F890020220FFF7C8FF0020B84956
:100C500008600220FFF7C2FF0120B449C1F89002EA
:100C60000220FFF7BBFF0120B149086000BD00B5BD
:100C70000246AD48006800231AE00020AC49091D77
:100C8000086002F0010018B10120091F086002E0AD
:100C90000020A74908600320FFF7A0FF52100120A1
:100CA000A349091D08600320FFF798FF581CC3B231
:100CB000082BE2DB00BD30B50446FFF795FF40206E
:100CC000FFF7D5FFFFF7A1FFFFF7B6FFFFF78CFF98
:100CD000C020FFF7CCFFFFF798FF002506E09549FD
:100CE000085DFFF7C4FFFFF790FF6D1C042DF6DBD6
:100CF000FF20FFF7BCFFFFF788FFFF20FFF7B7FFDC
:100D0000FFF783FFFFF798FFFFF76EFF8F20FFF7D6
:100D1000AEFFFFF77AFFFFF78FFF0520FFF75EFFBB
:100D200030BD70B505460E4683480068802802D164
:100D3000012081490860FFF757FF4020FFF797FF28
:100D4000FFF763FFFFF778FFFFF74EFFC020FFF7C5
:100D50008EFFFFF75AFF002411E0042C07DA295D0B
:100D6000744A515C8031C8B2FFF781FF04E0295D0D
:100D7000704A505CFFF77BFFFFF747FF641C701E53
:100D8000A042EADCFFF758FFFFF72EFF285DFFF7D0
:100D90006EFFFFF73AFFFFF74FFF0520FFF71EFF3B
:100DA00070BD1CB50121082000F02CFF1820009018
:100DB00001208DF8040000208DF8060001208DF838
:100DC000070002208DF8050069465C4800F0F4FB3E
:100DD0001CBD00B5FFF708FF8020FFF748FFFFF7B5
:100DE00014FFFFF729FF00BD70B5002500260A207B
:100DF00095FBF0F100FB115030B9FFF7A6FE044659
:100E0000002C01DA604204B2681CC5B2642094FB75
:100E1000F0F04B490870642094FBF0F100FB1140A6
:100E20000A2190FBF1F0464948700A2094FBF0F14A
:100E300000FB1140424988700C20C87018200871CE
:100E400048714048407988713F480068082808DAAE
:100E50003E48006828B93C480068401C3A49086090
:100E60000DE039480068401E3749086001203749C5
:100E7000086035480068012801D1002008600F2E65
:100E800000DD002607212E48FFF74BFFC82000F0A9
:100E9000DFF970BD10B50446012C04D12C48007850
:100EA000401C2B4908702A480078212802D12020B4
:100EB0002749087027482649097830F8110064212D
:100EC00090FBF1F01E49087022482149097830F85A
:100ED0001100642190FBF1F201FB12000A2190FB4A
:100EE000F1F0174948701B481949097830F811008A
:100EF000642190FBF1F201FB12000A2190FBF1F258
:100F000001FB12000E4988700C20C870182008716F
:100F100048710C484079887107210948FFF701FFA3
:100F2000C82000F095F910BD900241420080414276
:100F30008C82414231000020A0000020000C0240C1
:100F40004A00002051000020A8000020A40000203A
:100F50009C0000205A0000201CB50121042000F054
:100F600051FE4FF4E050009000208DF80400032063
:100F70008DF8050001208DF8070069467B4800F0D8
:100F80001BFB1CBD10B54FF48061784800F076FB68
:100F900010B90020764908604FF40061734800F0F2
:100FA0006DFB10B90120724908604FF480516F4801
:100FB00000F064FB10B904206D49086010BD10B545
:100FC0004FF48061694800F059FB30B96948006806
:100FD000022802D00120674908604FF4806163480D
:100FE00000F04CFB012802D10020624908604FF458
:100FF00000615E4800F042FB30B95F48006802289B
:1010000002D001205C4908604FF40061574800F0AD
:1010100035FB012802D10020574908604FF4805168
:10102000524800F02BFB30B954480068022802D027
:101030000120524908604FF480514C4800F01EFBDB
:10104000012802D100204D4908604FF480614748D3
:1010500000F014FB48BB47480068012825D1022056
:101060004449086000204649086008460068404935
:101070000968401A4349086008460068032807D0F9
:1010800008460068012803D008460068001D38B9EA
:1010900001203D49087008460078FFF7FBFE00E09C
:1010A00000BF37480068324908604FF400612F489C
:1010B00000F0E4FA48BB30480068012825D102203E
:1010C0002D49086001202E4908600846006828491B
:1010D0000968401A2B49086008460068032807D0B1
:1010E00008460068012803D008460068001D38B98A
:1010F00001202549087008460078FFF7CBFE00E084
:1011000000BF1F4800681A4908604FF48051174813
:1011100000F0B4FA48BB19480068012825D1022024
:1011200016490860042016490860084600681049FE
:101130000968401A1349086008460068032807D068
:1011400008460068012803D008460068001D38B929
:1011500001200D49087008460078FFF79BFE00E06B
:1011600000BF074800680249086010BD000802403F
:10117000B8000020AC000020B0000020B400002027
:10118000BC000020C0000020C400002010B50446B0
:101190006FF0040000F06CF9E11704EB5171C1F33A
:1011A000C701394A11701046007800EB4001C1EBCD
:1011B000C0104FF6FF7101EAC0003449088010BD2D
:1011C0000146314A12784A434FF0E0235A61002227
:1011D0009A611A46126942F001021A6100BF4FF08B
:1011E000E022106900F001021AB100F48032002AF6
:1011F000F5D04FF0E022126922F001024FF0E02317
:101200001A6100229A6170470146204A12884A43B7
:101210004FF0E0235A6100229A611A46126942F0A7
:1012200001021A6100BF4FF0E022106900F00102D4
:101230001AB100F48032002AF5D04FF0E022126992
:1012400022F001024FF0E0231A6100229A617047F8
:1012500070B504464FF4077094FBF0F0C6B24FF43B
:10126000077094FBF0F100FB114085B205E04FF4EC
:101270000770FFF7C9FF701EC6B2002EF7D115B177
:101280002846FFF7C1FF70BDC6000020C80000203F
:1012900000BF704700BF394A128802F04002002A9E
:1012A000F9D0C2B2354B1B1D1A80704710B588B0FB
:1012B00004460121084600F0A5FC0121480400F085
:1012C000EAFC072202212E4800F001FA072203213E
:1012D0002B4800F0FCF90C20069002208DF81C0031
:1012E0008DF81D0000208DF81E0001208DF81F00D4
:1012F00006A9234800F060F902940020ADF80C0024
:10130000ADF80E00ADF81000ADF814000C20ADF8EB
:10131000120002A9194800F07AFE0121174800F0D6
:10132000FEFE012240F22551144800F0AEFF2620B7
:101330008DF8040001208DF8050003208DF80600CB
:1013400001208DF8070001A800F045F808B010BD95
:1013500010B540F22551094800F0D2FF60B10748AE
:1013600000F00CFFC4B207480749098844540648F6
:101370000088401C0449088010BD00000044004063
:1013800000000240B7010020D20000200948804739
:1013900009480047FEE7FEE7FEE7FEE7FEE7FEE757
:1013A000FEE7FEE7FEE7FEE704480549054A064B6F
:1013B0007047000059030008890100082802002036
:1013C0002808002028040020280400203249014376
:1013D000324A1160704770B5002100230F22C47893
:1013E0001CB32E4C246804F4E064C4F5E064C4F338
:1013F0000721C1F10404E3B20A4144789C40E1B200
:101400008478144021430C07210E254C0578615542
:10141000047804F01F050124AC4005786D11AD007F
:1014200005F1E025C5F8004109E0047804F01F0546
:101430000124AC401B4D0678761145F8264070BD5E
:10144000194A0A400243154B1B1F1A60704739B1F5
:10145000124A121D12680243104B1B1D1A6006E04F
:101460000E4A121D126882430C4B1B1D1A607047F6
:10147000042808D14FF0E021096941F004014FF040
:10148000E022116107E04FF0E021096921F0040139
:101490004FF0E022116170470000FA050CED00E00A
:1014A00000E400E080E100E080FFFF1F10B504468B
:1014B0009848844208D10121084600F00EFC002122
:1014C000012000F00AFC76E09348844208D1012113
:1014D000022000F002FC0021022000F0FEFB6AE086
:1014E0008E48844208D10121042000F0F6FB00213F
:1014F000042000F0F2FB5EE08948844208D101211B
:10150000082000F0EAFB0021082000F0E6FB52E092
:101510008448844208D10121102000F0DEFB002124
:10152000102000F0DAFB46E07F48844208D1012118
:10153000202000F0D2FB0021202000F0CEFB3AE07A
:101540007A48844208D10121402000F0C6FB0021E6
:10155000402000F0C2FB2EE07548844208D10121F2
:10156000802000F0BAFB0021802000F0B6FB22E0D2
:101570007048844208D10121801500F0AEFB0021A3
:10158000A01500F0AAFB16E06B48844208D10121A7
:10159000401500F0A2FB0021601500F09EFB0AE060
:1015A0006648844207D10121001500F096FB002116
:1015B000201500F092FB10BDF0B50A460021002373
:1015C000002400BF3DE0012505FA01F3156805EA96
:1015D00003049C4234D105684F000326BE40B54346
:1015E000056015794E00B5400668354305601579EC
:1015F000012D02D01579022D16D185684F000326E2
:10160000BE40B543856055794E00B5408668354388
:101610008560456801268E40B543456045689679EA
:101620008E40B6B235434560C5684F000326BE40C4
:10163000B543C560D5794E00B540C6683543C56031
:10164000491C1029BFD3F0BD4FF6FF710160002186
:10165000017141718171C171704708B54FF48032D9
:101660000092009A0A430092009AC261C161009AF6
:10167000C261C2690092C269009208BD02460020A0
:1016800013690B400BB1012000E0002070470146B8
:10169000086980B270470246002053690B400BB1C5
:1016A000012000E0002070470146486980B2704781
:1016B00001837047418370470AB1018300E0418391
:1016C00070474161704742694A4042617047F0B5D6
:1016D000002300244D07ED0E02FA05F3CE1000F1B1
:1016E000200555F826504E07F70E0F26BE40B5438D
:1016F000CF1000F1200646F82750CE1000F120054B
:1017000055F8265045EA0304CE1000F1200545F8AF
:101710002640F0BD000002400004024000080240E4
:10172000000C024000100240001402400018024069
:10173000001C024000200240002402400028024019
:10174000002041490860091D0860091D0860091D45
:1017500008603E483C4914310860704700213A490E
:101760008279002A3AD00A46126803689A430B46E7
:101770001A600A1D126803689A430B1D1A600279E9
:1017800011440A6803681A430A602F4A0832126833
:1017900003689A432C4B08331A601A1D12680368B9
:1017A0009A43294B0C331A604279102A0ED11A1F22
:1017B000126803681A43244B08331A601A1D126812
:1017C00003681A43204B0C331A600DE01E4942791E
:1017D00011440A6803681A430A6005E0027911445B
:1017E0000A6803689A430A6070470021016001712A
:1017F0000C21417100218171704713491031096832
:101800000143114A103211607047014600200E4A10
:10181000143212680A400AB1012000E0002070472B
:10182000094914310860704701460020064A143205
:1018300012680A400AB1012000E000207047024906
:101840001431086070470000003C0140FFFF7F003A
:10185000F948006840F00100F74908600020F649A7
:1018600008310860F4480068F4490840F24908600B
:10187000F348091D0860F348EF4984310860F048D7
:101880001038091D0860EC48006820F48020EA49FF
:1018900008600020E8490C310860E7498C31086095
:1018A00070470021E44A921C11701146087070477D
:1018B00010B501460022002300204A11012A02D15E
:1018C000DD4C236808E0022A03D1DB4C7034236826
:1018D00002E0D94C7434236801F01F0201249440C3
:1018E0001C400CB1012000E0002010BD38B50020E4
:1018F00000900024002500BF3120FFF7D9FF0546E6
:101900000098401C00900098B0F5A04F01D0002D29
:10191000F2D03120FFF7CCFF08B1012400E0002411
:10192000204638BD01460020C34A106820F0F80068
:1019300040EAC10010607047C34908607047002149
:10194000BD4A703211701170012802D004280AD1EA
:1019500004E00121B84A7032117005E00521B64A51
:101960007032117000E000BF00BF7047B7490860D7
:10197000704770B5049C41EA82150126C6EB5306F8
:1019800045EA0645054345EA0465AB4E361D35601C
:1019900070BDAD4908667047820142EA0172A64BEC
:1019A00084331A607047A8498866704710B5830170
:1019B00043EA016343EA02739F4C8834236010BDFD
:1019C000A14908677047A049C864704702460020D3
:1019D000994B0833186820F0EC6042EA0103184381
:1019E000954B08331860704702460020924B08332D
:1019F000186820F0784042EA010318438E4B083300
:101A000018607047014600208B4A0832106820F0A9
:101A1000030008431060704787480830006800F0F2
:101A20000C00704701460020834A0832106820F0FD
:101A3000F000084310607047014600207E4A0832DB
:101A4000106820F4E0500843106070470146002001
:101A5000794A0832106820F4604040EAC100106002
:101A60007047F0B500210022002402250026022341
:101A7000714F08373F6807F00C0121B1042905D0E8
:101A8000082937D105E0724F076036E0714F0760D3
:101A900033E0694F3F1D3F68C7F38056664F3F1DD7
:101AA0003F6807F03F036EB16A4FB7FBF3F7DFF80B
:101AB00088C10CF1040CDCF800C0CCF3881C07FBD7
:101AC0000CF40CE0624FB7FBF3F7DFF86CC10CF1DC
:101AD000040CDCF800C0CCF3881C07FB0CF4564F58
:101AE0003F1D3F68C7F301477F1C7D00B4FBF5F73E
:101AF000076002E0564F076000BF00BF4E4F083737
:101B00003F6807F0F0010909534F7A5C0768D74036
:101B10004760494F08373F6807F4E051890A4E4F44
:101B20007A5C4768D7408760434F08373F6807F4BF
:101B30006041490B484F7A5C4768D740C760F0BDA9
:101B4000002100F44072B2F5407F0AD13A4A0832CF
:101B5000116821F4F811414A02401143364A083213
:101B60001160354A70321268C0F30B031A43324BCE
:101B700070331A60704735494439086070473349FB
:101B800040390860704736490860704701460020B8
:101B9000294A8C32106820F01F004A1E1043264A42
:101BA0008C321060704701460020234A8C32106846
:101BB00020F4F8504A1E40EA02201F4A8C3210607E
:101BC0007047014600201C4A8C32106820F44010F7
:101BD00008431060704701460020174A8C32106895
:101BE00020F4400008431060704701460020124A6C
:101BF0008C32106820F44030084310607047194957
:101C00000860704739B10C4A3032126802430A4BFF
:101C100030331A6006E0084A303212688243064BBD
:101C200030331A607047F9B1034A34321268024304
:101C3000014B34331A601CE000380240FFFFF6EA23
:101C4000103000240030002000004742800E474240
:101C50000024F40000127A00D4000020FFFCFF0FE3
:101C60005C014742E01147428F4A126882438E4B23
:101C70001A60704739B18C4A121D126802438A4BB0
:101C80001B1D1A6006E0884A121D12688243864BAB
:101C90001B1D1A60704739B1834A0C321268024327
:101CA000814B0C331A6006E07F4A0C321268824383
:101CB0007D4B0C331A60704739B17B4A1032126881
:101CC0000243794B10331A6006E0774A10321268EB
:101CD0008243754B10331A60704739B1724A243A07
:101CE00012680243704B243B1A6006E06E4A243AA5
:101CF000126882436C4B243B1A60704739B16A4AC0
:101D0000203A12680243684B203B1A6006E0664A9C
:101D1000203A12688243644B203B1A60704739B105
:101D2000614A1C3A126802435F4B1C3B1A6006E092
:101D30005D4A1C3A126882435B4B1C3B1A60704739
:101D400039B1594A143A12680243574B143B1A608E
:101D500006E0554A143A12688243534B143B1A600A
:101D6000704739B1504A103A126802434E4B103B4B
:101D70001A6006E04C4A103A126882434A4B103B04
:101D80001A60704739B1484A1C3212680243464B08
:101D90001C331A6006E0444A1C3212688243424BEC
:101DA0001C331A60704739B13F4A2032126802432F
:101DB0003D4B20331A6006E03B4A203212688243D2
:101DC000394B20331A60704739B1374A24321268D0
:101DD0000243354B24331A6006E0334A243212683A
:101DE0008243314B24331A60704739B12E4A2C326A
:101DF000126802432C4B2C331A6006E02A4A2C321C
:101E000012688243284B2C331A60704739B1264A36
:101E1000303212680243244B30331A6006E0224A03
:101E2000303212688243204B30331A6070470128E9
:101E300008D11D493C31096841F008011A4A3C3279
:101E4000116007E018493C31096821F00801164A81
:101E50003C321160704739B1134A273A1278024375
:101E6000114B273B1A7006E00F4A273A127882433B
:101E70000D4B273B1A7070470B484030006840F00C
:101E80008070094940310860704701460020064AC9
:101E9000283A12680A400AB1012000E00020704789
:101EA00001492639087070473438024010B50121C5
:101EB0008803FFF756FF00214FF48040FFF751FFE2
:101EC00010BD1C49086070471B490862704730B557
:101ED00000228B071C0F0F2303FA04F2154B083363
:101EE0008C1053F824309343124C08348D1044F86E
:101EF000253023468C1053F824308C07240F00FA29
:101F000004F423430B4C08348D1044F8253030BDC5
:101F10000949DC31086070470849086070470020B3
:101F200004492031096801F4807109B1012000E001
:101F3000002070470038014000002742000427427B
:101F400010B50446FA48844208D101211020FFF759
:101F500008FF00211020FFF704FF57E0F5488442F6
:101F600009D101214804FFF7EBFE00214FF40030B6
:101F7000FFF7E6FE4AE0F048844209D101218804D7
:101F8000FFF7DEFE00214FF48020FFF7D9FE3DE091
:101F9000EA48844209D10121C804FFF7D1FE00219B
:101FA0004FF40020FFF7CCFE30E0E548844209D131
:101FB00001210805FFF7C4FE00214FF48010FFF750
:101FC000BFFE23E0DF48844208D101212020FFF733
:101FD000C8FE00212020FFF7C4FE17E0DA48844243
:101FE00009D101218807FFF7ABFE00214FF08040A7
:101FF000FFF7A6FE0AE0D548844207D1012140053B
:10200000FFF79EFE00216005FFF79AFE10BD2DE947
:10201000FF4705460E460024A14600BFA046B089F2
:1020200000B100BF2C8A24F44054F08804432C8271
:10203000AC8941F20C608443B088318908437189CE
:1020400008430443AC81AC8A24F44074B08904434F
:10205000AC826846FFF705FDB548854202D0B94815
:10206000854202D1DDF80C9001E0DDF80890A889E6
:1020700000F4004040B109EBC90000EB09103168E1
:102080004900B0FBF1F707E009EBC90000EB0910CC
:1020900031688900B0FBF1F76420B7FBF0F0040170
:1020A0002009642101FB1078A88900F4004040B1A8
:1020B000322000EBC800B0FBF1F000F00700044351
:1020C00008E0322000EB08106421B0FBF1F000F0D2
:1020D0000F0004432C81BDE8FF874FF416510160C7
:1020E00000218180C18001810C21418100218181F9
:1020F000704710B502460020108A20F470600B88EB
:102100004C8823438C882343CC8823431843108274
:1021100010BD0021018041808180C180704721B1C4
:10212000828942F40052828104E082894DF6FF7375
:102130001A4082817047028B02F47F420283028B35
:102140000A430283704721B1828942F400428281AE
:1021500003E08289C2F30E028281704721B1828A34
:1021600042F40062828204E0828A4FF2FF731A40D6
:1021700082827047C1F308028280704701468888D6
:10218000C0F308007047028A4FF6F0731A400282CB
:10219000028A0A430282704721B1828942F0020218
:1021A000828104E082894FF6FD731A408281704774
:1021B00082894FF2FF731A40828182890A438281A9
:1021C0007047028A4FF6DF731A400282028A0A437E
:1021D0000282704721B1028A42F48042028204E006
:1021E000028A4BF6FF731A4002827047818941F0E0
:1021F00001018181704721B1828A42F00802828206
:1022000004E0828A4FF6F7731A4082827047028B8D
:10221000D2B20283028B42EA01220283704721B1CB
:10222000828A42F02002828204E0828A4FF6DF73C3
:102230001A408282704721B1828A42F01002828263
:1022400004E0828A4FF6EF731A4082827047828AD6
:102250004FF6FB731A408282828A0A438282704759
:1022600021B1828A42F00202828204E0828A4FF621
:10227000FD731A40828270471AB1838A0B438382AE
:1022800002E0838A8B4383827047F0B503460024C3
:1022900000260025002040F66A17B94200D100BF91
:1022A0001846C1F3421401F01F06012707FA06F58C
:1022B000012C01D10C3004E0022C01D1103000E0DF
:1022C00014301AB107682F43076002E00768AF4374
:1022D0000760F0BD02460020B1F5007F00D100BFCD
:1022E00013880B400BB1012000E00020704701F47F
:1022F0000072B2F5007F00D100BFCA430280704770
:1023000070B50246002400230025002040F66A161E
:10231000B14200D100BFC1F3421501F01F030126F5
:1023200006FA03F3012D13D19689334017E000001C
:10233000001001400044004000480040004C0040B4
:10234000005000400014014000780040007C004034
:10235000022D02D1168A334001E0968A33400C12D6
:10236000012606FA04F41688344013B10CB101209A
:1023700000E0002070BD10B50022002340F66A1472
:10238000A14200D100BF0A1201249440A3B2DC4351
:10239000048010BD10B501210802FFF7E2FC002106
:1023A0004FF48070FFF7DDFC10BD30B50246002011
:1023B00000235068F84C20400D790C6844EA05244D
:1023C000204350609068F54C2040D1E903542C43E1
:1023D0008D682C434D7944EA450420439060D06ACF
:1023E00020F470000C7D641EE4B2234340EA0350E5
:1023F000D06230BD00210160017141718160C16016
:1024000001610121017570470021E54A1168E54A23
:102410001140D0E900231A4383681A43C3681A4362
:102420001143E14AC2F80413704700210160416082
:102430008160C160704721B1826842F00102826010
:1024400003E0826822F00102826070470A460021A0
:102450004168D64B19401143416070474162826226
:1024600070470A460021416821F01F011143416075
:10247000704738B1CA49096841F40001CA4AC2F834
:10248000041306E0C649096821F40001C64AC2F8EF
:102490000413704738B1C249096841F48001C24A47
:1024A000C2F8041306E0BE49096821F48001BE4A5F
:1024B000C2F804137047F0B504460D460020002111
:1024C000092D11DDE068A5F10A0606EB460707268F
:1024D00006FA07F18843A5F10A0606EB460603FA59
:1024E00006F10843E0600CE0206905EB450707268C
:1024F00006FA07F1884305EB450603FA06F108439F
:102500002061072A0FDA606B561E06EB86071F262E
:1025100006FA07F18843561E06EB860605FA06F111
:102520000843606322E00D2A0FDA206BD61F06EB0A
:1025300086071F2606FA07F18843D61F06EB860694
:1025400005FA06F10843206310E0E06AA2F10D06E7
:1025500006EB86071F2606FA07F18843A2F10D064F
:1025600006EB860605FA06F10843E062F0BD8168D5
:1025700041F0804181607047014600208A6802F086
:1025800080420AB1012000E00020704721B182683A
:1025900042F48062826003E0826822F4806282609A
:1025A000704721B1826842F00202826003E08268D3
:1025B00022F002028260704710B50A460021002313
:1025C000416821F46041531E41EA4331416010BD2E
:1025D00021B1426842F40062426003E0426822F4A2
:1025E0000062426070470146C86C80B270476C4818
:1025F000001D0068704721B1826842F480728260D9
:1026000003E0826822F480728260704721B18268A0
:1026100042F40072826003E0826822F400728260F9
:10262000704738B15E49096841F400515E4AC2F80A
:10263000041306E05A49096821F400515A4AC2F8C5
:1026400004137047F0B5044615460020002200260A
:10265000092911DDE068A1F10A0707EB470C0727FC
:1026600007FA0CF29043A1F10A0707EB470703FAB8
:1026700007F21043E0600CE0206901EB410C0727F2
:1026800007FA0CF2904301EB410703FA07F21043FB
:102690002061A06BC0F30156EF1C06F1010CA7EB03
:1026A0000C0707EB870C1F2707FA0CF29043EF1C6F
:1026B00006F1010CA7EB0C0707EB870701FA07F2FD
:1026C0001043A063F0BD10B50A4600210023816BC2
:1026D00021F44011531E41EA0351816310BD08B536
:1026E000002300930090009B0B440093009B1A6012
:1026F00008BD0A460021816821F4702111438160E0
:1027000070470A460021816821F44011114381601D
:102710007047816841F48001816070470146002064
:102720008A6802F480020AB1012000E000207047AC
:1027300021B1426842F48062426003E0426822F4C0
:1027400080624260704721B1426842F48052426028
:1027500003E0426822F480524260704708B50246A6
:1027600000200090009201F12800009B1844009086
:102770000098006880B208BD10B50B460021D9B2A0
:10278000012404FA01F11AB144680C43446002E0E8
:1027900044688C43446010BDFFFEFFFCFDF7FFC0A2
:1027A00004230140E030FCFF00200140FFFD3FFF1B
:1027B0000246002013680B400BB1012000E000200E
:1027C0007047CA430260704770B50246002000237C
:1027D00000240B12556801268E4005EA0604156890
:1027E0001D4015B10CB1012000E0002070BD002299
:1027F0000A12D343036070477047704770477047B1
:102800007047754600F028F8AE4605006946534605
:1028100020F00700854618B020B5FEF7C5FDBDE8DD
:1028200020404FF000064FF000074FF000084FF037
:10283000000B21F00701AC46ACE8C009ACE8C009C8
:10284000ACE8C009ACE8C0098D4670470446AFF358
:1028500000802046FDF7E1FC00487047C4010020DD
:1028600021F00042A2F16052B2F5801F01F0004356
:1028700028BFD2F17F6C0BD95FEA001C43EAC20289
:1028800042EB507018BF704728BF20F0010070471E
:10289000B2F5801FBCBF184670474FEA410C1CF5CB
:1028A000001F02D2084600F0C7B970B500F0FAF870
:1028B00000000089FFF7F6BF4FF00040A0F5800050
:1028C000704700004FEA41034FEA5353A3F580637A
:1028D000D3F11E03C8BFD3F1210C0CDD4FF0004231
:1028E00042EAC12242EA505232FA03FC8CEAE17C0D
:1028F000ACEBE1707047102BC4BF0020704703F5AC
:10290000787CBCF1FF3F04D06FF0004282EA2100E6
:10291000704770B500F0C6F84992248000207047D7
:10292000F2E710F0004248BF4042B0FA80F310FADC
:1029300003F10AD0C3F11D0303F580634FEA415050
:1029400002EB035202EBD12170474FF000007047B9
:10295000DFF848C170B51CEA111E1EBF1CEA131532
:102960009EEA0C0F95EA0C0F00F06F8081EA0304D9
:1029700023EA4C134EEAD47E21EA4C1141F4801133
:1029800043F48013AE44A1FB024CA0FB0365AEF1FF
:102990007F7E361955EB0C05A1FB034C4CF100036F
:1029A000A0FB021C16EB0C06654153F10003094223
:1029B00018BF46F0010613F4007F0BD14FEA033134
:1029C0004FEA0530340341EA155140EA16506FF0E2
:1029D00003020AE04FEAC3214FEAC520F40241EAAC
:1029E000555140EA56506FF0020202EB2E4201EBC5
:1029F000025585EACE710AD05FEA440C18BF24F074
:102A0000004450F1000041F1000120EAD47040F28E
:102A1000FE7C624500D270BDA84214BF4FF08044D6
:102A20004FF04044002E08BF0024BEF1806FA8BFC5
:102A3000A1F1C041BDE8704080F282804FF00000FB
:102A400001F1C04101F0004170479EEA0C0F0CEA11
:102A5000131518BF95EA0C0F06D04FF0000081EA5D
:102A6000030E0EF0004170BD00F01CF88900013E1D
:102A700000F007B800F009B84FEA430C5FEA5C5C6D
:102A800008D081EA030100F05BB84FEA410C5FEA2D
:102A90005C5CF6D14FF00000014970470000FF0771
:102AA0000000F87F0EF1020E2EF0030E5EF8046BAC
:102AB000364205D4012A43EB030515F5001F12D851
:102AC000012841EB010C1CF5001F0CD80ED14FEA78
:102AD000D17C15F5001F0CEB4C0C0CF1020C08BF5F
:102AE0004CEBD37C04E04FF0080C01E04FEAD37CC0
:102AF0000CEB4C0526FA05F606F00706B6F1040CB9
:102B000006D20EEB860CBDE870404CF0010C60471D
:102B1000DFE80CF0090B02024FF000414FF000001B
:102B2000A1F5002170BD19461046012851EB0104A2
:102B300018BFD4F5001484BF002001F0004170BD1F
:102B40000808A0F500114FEA3101704743004FEA31
:102B5000D30C4FEA3C0C43401FBF40070CF16051BF
:102B600013F0FE4F70471CF0006F03D100200CF0F3
:102B7000004170470CF0004343EA507010B540EA42
:102B8000CC0000F00EF800BF000000924FEA0001F8
:102B9000FFF7D6BF4FF000414FF00000A1F5002134
:102BA00070470EF1020E2EF0030E5EF8044B244225
:102BB00004D44FEA4102B2F17F4F11D84FEA4003EB
:102BC000B3F17F4F0CD80ED14FEAD07CB2F17F4FDA
:102BD0000CEB4C0C0CF1020C08BF4CEBD17C04E06C
:102BE0004FF0080C01E04FEAD17C0CEB4C0324FAC7
:102BF00003F404F00704B4F1040C06D20EEB840CC9
:102C0000BDE810404CF0010C6047DFE80CF007080D
:102C100002024FF00040A0F5800010BD08464200BF
:102C200018BFD2F1807288BF00F0004010BD4FF095
:102C30004070E1EE100A7047FF2141EAD050C00514
:102C4000704700002110422063308440A550C660C8
:102C5000E770088129914AA16BB18CC1ADD1CEE159
:102C6000EFF13112100273325222B5529442F772D0
:102C7000D662399318837BB35AA3BDD39CC3FFF3A9
:102C8000DEE36224433420040114E664C774A444E0
:102C900085546AA54BB528850995EEE5CFF5ACC5F9
:102CA0008DD55336722611163006D776F6669556B0
:102CB000B4465BB77AA719973887DFF7FEE79DD749
:102CC000BCC7C448E5588668A77840086118022840
:102CD0002338CCC9EDD98EE9AFF9488969990AA999
:102CE0002BB9F55AD44AB77A966A711A500A333A10
:102CF000122AFDDBDCCBBFFB9EEB799B588B3BBBE9
:102D00001AABA66C877CE44CC55C222C033C600C9F
:102D1000411CAEED8FFDECCDCDDD2AAD0BBD688D38
:102D2000499D977EB66ED55EF44E133E322E511EEF
:102D3000700E9FFFBEEFDDDFFCCF1BBF3AAF599F88
:102D4000788F8891A981CAB1EBA10CD12DC14EF128
:102D50006FE18010A100C230E3200450254046708E
:102D60006760B9839893FBA3DAB33DC31CD37FE3B9
:102D70005EF3B1029012F322D232354214527762DE
:102D80005672EAB5CBA5A89589856EF54FE52CD589
:102D90000DC5E234C324A01481046674476424542E
:102DA0000544DBA7FAB79987B8975FE77EF71DC799
:102DB0003CD7D326F2369106B0165766767615467E
:102DC00034564CD96DC90EF92FE9C899E9898AB9E9
:102DD000ABA94458654806782768C018E1088238CE
:102DE000A3287DCB5CDB3FEB1EFBF98BD89BBBABF9
:102DF0009ABB754A545A376A167AF10AD01AB32A1E
:102E0000923A2EFD0FED6CDD4DCDAABD8BADE89D48
:102E1000C98D267C076C645C454CA23C832CE01C6D
:102E2000C10C1FEF3EFF5DCF7CDF9BAFBABFD98FD8
:102E3000F89F176E367E554E745E932EB23ED10EBD
:102E4000F01E0000642E000800000020E4000000D6
:102E5000C4010008482F0008E400002044070000D7
:102E6000E0010008007A030A0000000000000000F2
:102E70000102030406070809A3A4FFFF00041015BC
:102E800001110000A3A4FFFF00041047010000008F
:102E900000000000CF3F065B4F666D7D077F6F77B8
:102EA0007C395E797108484976380E5037FF00004A
:102EB00000000000008088898A8B8C8D8E8FA00096
:102EC000A500AA00AF00B400B900BE00C300C8004E
:102ED000CD00D200D700DC00E100E600EB00F000FE
:102EE000F500FA00FF00040109010E0113011801A9
:102EF0001D01220127012C01310136013B01400156
:102F000000000000010000000000000004000000BC
:102F10000000000000000000000000000A000000A7
:102F20000A0000000A00000000000000000000008D
:102F30000000000000000000000000000102030487
:082F4000010203040607080961
:040000050800018965
:00000001FF
